{
  "contractName": "OfferFabric",
  "abi": [
    {
      "constant": true,
      "inputs": [
        {
          "name": "",
          "type": "uint256"
        }
      ],
      "name": "offers",
      "outputs": [
        {
          "name": "name",
          "type": "string"
        },
        {
          "name": "desc",
          "type": "string"
        },
        {
          "name": "state",
          "type": "uint8"
        },
        {
          "name": "maxTotalSum",
          "type": "uint256"
        },
        {
          "name": "minSumPer",
          "type": "uint256"
        },
        {
          "name": "maxSumPer",
          "type": "uint256"
        },
        {
          "name": "rate",
          "type": "uint256"
        },
        {
          "name": "currentTotalSum",
          "type": "uint256"
        },
        {
          "name": "restricted",
          "type": "bool"
        }
      ],
      "payable": false,
      "stateMutability": "view",
      "type": "function"
    },
    {
      "constant": true,
      "inputs": [],
      "name": "owner",
      "outputs": [
        {
          "name": "",
          "type": "address"
        }
      ],
      "payable": false,
      "stateMutability": "view",
      "type": "function"
    },
    {
      "constant": true,
      "inputs": [
        {
          "name": "",
          "type": "uint256"
        }
      ],
      "name": "offerToOwner",
      "outputs": [
        {
          "name": "",
          "type": "address"
        }
      ],
      "payable": false,
      "stateMutability": "view",
      "type": "function"
    },
    {
      "constant": false,
      "inputs": [
        {
          "name": "newOwner",
          "type": "address"
        }
      ],
      "name": "transferOwnership",
      "outputs": [],
      "payable": false,
      "stateMutability": "nonpayable",
      "type": "function"
    },
    {
      "anonymous": false,
      "inputs": [
        {
          "indexed": false,
          "name": "offerId",
          "type": "uint256"
        },
        {
          "indexed": false,
          "name": "name",
          "type": "string"
        },
        {
          "indexed": false,
          "name": "desc",
          "type": "string"
        },
        {
          "indexed": false,
          "name": "maxTotalSum",
          "type": "uint256"
        }
      ],
      "name": "NewOffer",
      "type": "event"
    },
    {
      "anonymous": false,
      "inputs": [
        {
          "indexed": false,
          "name": "offerId",
          "type": "uint256"
        },
        {
          "indexed": false,
          "name": "name",
          "type": "string"
        },
        {
          "indexed": false,
          "name": "desc",
          "type": "string"
        },
        {
          "indexed": false,
          "name": "maxTotalSum",
          "type": "uint256"
        }
      ],
      "name": "AddInvestors",
      "type": "event"
    },
    {
      "anonymous": false,
      "inputs": [
        {
          "indexed": true,
          "name": "previousOwner",
          "type": "address"
        },
        {
          "indexed": true,
          "name": "newOwner",
          "type": "address"
        }
      ],
      "name": "OwnershipTransferred",
      "type": "event"
    },
    {
      "constant": false,
      "inputs": [],
      "name": "kill",
      "outputs": [],
      "payable": false,
      "stateMutability": "nonpayable",
      "type": "function"
    },
    {
      "constant": false,
      "inputs": [
        {
          "name": "_name",
          "type": "string"
        },
        {
          "name": "_desc",
          "type": "string"
        },
        {
          "name": "_maxTotalSum",
          "type": "uint256"
        },
        {
          "name": "_minSumPer",
          "type": "uint256"
        },
        {
          "name": "_maxSumPer",
          "type": "uint256"
        },
        {
          "name": "_rate",
          "type": "uint256"
        }
      ],
      "name": "createOffer",
      "outputs": [],
      "payable": false,
      "stateMutability": "nonpayable",
      "type": "function"
    },
    {
      "constant": false,
      "inputs": [
        {
          "name": "_offerId",
          "type": "uint256"
        },
        {
          "name": "_newName",
          "type": "string"
        }
      ],
      "name": "changeName",
      "outputs": [],
      "payable": false,
      "stateMutability": "nonpayable",
      "type": "function"
    },
    {
      "constant": false,
      "inputs": [
        {
          "name": "_offerId",
          "type": "uint256"
        },
        {
          "name": "_newDesc",
          "type": "string"
        }
      ],
      "name": "changeDesc",
      "outputs": [],
      "payable": false,
      "stateMutability": "nonpayable",
      "type": "function"
    },
    {
      "constant": false,
      "inputs": [
        {
          "name": "_offerId",
          "type": "uint256"
        },
        {
          "name": "_newmaxTotalSum",
          "type": "uint256"
        }
      ],
      "name": "changemaxTotalSum",
      "outputs": [],
      "payable": false,
      "stateMutability": "nonpayable",
      "type": "function"
    },
    {
      "constant": false,
      "inputs": [
        {
          "name": "_offerId",
          "type": "uint256"
        },
        {
          "name": "_newMaxSumPer",
          "type": "uint256"
        }
      ],
      "name": "changeMaxSumPer",
      "outputs": [],
      "payable": false,
      "stateMutability": "nonpayable",
      "type": "function"
    },
    {
      "constant": false,
      "inputs": [
        {
          "name": "_offerId",
          "type": "uint256"
        },
        {
          "name": "_newMinSumPer",
          "type": "uint256"
        }
      ],
      "name": "changeMinSumPer",
      "outputs": [],
      "payable": false,
      "stateMutability": "nonpayable",
      "type": "function"
    },
    {
      "constant": false,
      "inputs": [
        {
          "name": "_offerId",
          "type": "uint256"
        },
        {
          "name": "_newRate",
          "type": "uint256"
        }
      ],
      "name": "changeRate",
      "outputs": [],
      "payable": false,
      "stateMutability": "nonpayable",
      "type": "function"
    },
    {
      "constant": false,
      "inputs": [
        {
          "name": "_offerId",
          "type": "uint256"
        },
        {
          "name": "_investor",
          "type": "address"
        }
      ],
      "name": "addInvestor",
      "outputs": [],
      "payable": false,
      "stateMutability": "nonpayable",
      "type": "function"
    },
    {
      "constant": false,
      "inputs": [
        {
          "name": "_offerId",
          "type": "uint256"
        },
        {
          "name": "_investors",
          "type": "address[]"
        }
      ],
      "name": "addInvestors",
      "outputs": [],
      "payable": false,
      "stateMutability": "nonpayable",
      "type": "function"
    },
    {
      "constant": true,
      "inputs": [
        {
          "name": "_owner",
          "type": "address"
        }
      ],
      "name": "getOffersByOwner",
      "outputs": [
        {
          "name": "",
          "type": "uint256[]"
        }
      ],
      "payable": false,
      "stateMutability": "view",
      "type": "function"
    },
    {
      "constant": true,
      "inputs": [
        {
          "name": "_offerId",
          "type": "uint256"
        },
        {
          "name": "_address",
          "type": "address"
        }
      ],
      "name": "inInvestors",
      "outputs": [
        {
          "name": "",
          "type": "bool"
        }
      ],
      "payable": false,
      "stateMutability": "view",
      "type": "function"
    },
    {
      "constant": false,
      "inputs": [
        {
          "name": "_offerId",
          "type": "uint256"
        }
      ],
      "name": "invest",
      "outputs": [],
      "payable": true,
      "stateMutability": "payable",
      "type": "function"
    }
  ],
  "bytecode": "0x6080604052336000806101000a81548173ffffffffffffffffffffffffffffffffffffffff021916908373ffffffffffffffffffffffffffffffffffffffff160217905550611c7d806100536000396000f3006080604052600436106100f1576000357c0100000000000000000000000000000000000000000000000000000000900463ffffffff1680631d729db2146100f65780632afcf4801461015b57806341c0e1b51461017b57806358e3ab68146101925780637c5612a51461022a5780638a72ea6a1461026f5780638da5cb5b146103c4578063917312881461041b578063a76d838d14610452578063a883b0c414610489578063bbe30722146104c0578063c39cbef11461050d578063c4115ed314610552578063c4b10498146105cd578063e05052ac1461063a578063f2fde38b1461067f578063f511b359146106c2575b600080fd5b34801561010257600080fd5b5061014160048036038101908080359060200190929190803573ffffffffffffffffffffffffffffffffffffffff1690602001909291905050506106f9565b604051808215151515815260200191505060405180910390f35b61017960048036038101908080359060200190929190505050610771565b005b34801561018757600080fd5b50610190610958565b005b34801561019e57600080fd5b506101d3600480360381019080803573ffffffffffffffffffffffffffffffffffffffff1690602001909291905050506109ed565b6040518080602001828103825283818151815260200191508051906020019060200280838360005b838110156102165780820151818401526020810190506101fb565b505050509050019250505060405180910390f35b34801561023657600080fd5b5061026d60048036038101908080359060200190929190803590602001908201803590602001919091929391929390505050610b1f565b005b34801561027b57600080fd5b5061029a60048036038101908080359060200190929190505050610c55565b6040518080602001806020018a60048111156102b257fe5b60ff1681526020018981526020018881526020018781526020018681526020018581526020018415151515815260200183810383528c818151815260200191508051906020019080838360005b8381101561031a5780820151818401526020810190506102ff565b50505050905090810190601f1680156103475780820380516001836020036101000a031916815260200191505b5083810382528b818151815260200191508051906020019080838360005b83811015610380578082015181840152602081019050610365565b50505050905090810190601f1680156103ad5780820380516001836020036101000a031916815260200191505b509b50505050505050505050505060405180910390f35b3480156103d057600080fd5b506103d9610dfc565b604051808273ffffffffffffffffffffffffffffffffffffffff1673ffffffffffffffffffffffffffffffffffffffff16815260200191505060405180910390f35b34801561042757600080fd5b506104506004803603810190808035906020019092919080359060200190929190505050610e21565b005b34801561045e57600080fd5b506104876004803603810190808035906020019092919080359060200190929190505050610f05565b005b34801561049557600080fd5b506104be6004803603810190808035906020019092919080359060200190929190505050610fe9565b005b3480156104cc57600080fd5b5061050b60048036038101908080359060200190929190803573ffffffffffffffffffffffffffffffffffffffff1690602001909291905050506110cd565b005b34801561051957600080fd5b506105506004803603810190808035906020019092919080359060200190820180359060200191909192939192939050505061118e565b005b34801561055e57600080fd5b506105cb6004803603810190808035906020019082018035906020019190919293919293908035906020019082018035906020019190919293919293908035906020019092919080359060200190929190803590602001909291908035906020019092919050505061127e565b005b3480156105d957600080fd5b506105f8600480360381019080803590602001909291905050506115bf565b604051808273ffffffffffffffffffffffffffffffffffffffff1673ffffffffffffffffffffffffffffffffffffffff16815260200191505060405180910390f35b34801561064657600080fd5b5061067d600480360381019080803590602001909291908035906020019082018035906020019190919293919293905050506115f2565b005b34801561068b57600080fd5b506106c0600480360381019080803573ffffffffffffffffffffffffffffffffffffffff1690602001909291905050506116e2565b005b3480156106ce57600080fd5b506106f76004803603810190808035906020019092919080359060200190929190505050611837565b005b600060018381548110151561070a57fe5b90600052602060002090600b0201600a0160008373ffffffffffffffffffffffffffffffffffffffff1673ffffffffffffffffffffffffffffffffffffffff16815260200190815260200160002060010160009054906101000a900460ff16905092915050565b600080600060018481548110151561078557fe5b90600052602060002090600b02019250826003015483600701541015806107f45750826005015483600a0160003373ffffffffffffffffffffffffffffffffffffffff1673ffffffffffffffffffffffffffffffffffffffff1681526020019081526020016000206000015410155b806108025750826004015434105b15610853573373ffffffffffffffffffffffffffffffffffffffff166108fc349081150290604051600060405180830381858888f1935050505015801561084d573d6000803e3d6000fd5b50610952565b60018481548110151561086257fe5b90600052602060002090600b0201600a0160003373ffffffffffffffffffffffffffffffffffffffff1673ffffffffffffffffffffffffffffffffffffffff16815260200190815260200160002091506108d96108c934846000015486600501540361191b565b846007015485600301540361191b565b905080826000016000828254019250508190555080836007016000828254019250508190555080341115610951573373ffffffffffffffffffffffffffffffffffffffff166108fc8234039081150290604051600060405180830381858888f1935050505015801561094f573d6000803e3d6000fd5b505b5b50505050565b6000809054906101000a900473ffffffffffffffffffffffffffffffffffffffff1673ffffffffffffffffffffffffffffffffffffffff163373ffffffffffffffffffffffffffffffffffffffff161415156109b357600080fd5b6000809054906101000a900473ffffffffffffffffffffffffffffffffffffffff1673ffffffffffffffffffffffffffffffffffffffff16ff5b606080600080600360008673ffffffffffffffffffffffffffffffffffffffff1673ffffffffffffffffffffffffffffffffffffffff16815260200190815260200160002054604051908082528060200260200182016040528015610a615781602001602082028038833980820191505090505b50925060009150600090505b600180549050811015610b14578473ffffffffffffffffffffffffffffffffffffffff166002600083815260200190815260200160002060009054906101000a900473ffffffffffffffffffffffffffffffffffffffff1673ffffffffffffffffffffffffffffffffffffffff161415610b0757808383815181101515610af057fe5b906020019060200201818152505081806001019250505b8080600101915050610a6d565b829350505050919050565b6000836002600082815260200190815260200160002060009054906101000a900473ffffffffffffffffffffffffffffffffffffffff1673ffffffffffffffffffffffffffffffffffffffff163373ffffffffffffffffffffffffffffffffffffffff161415610c4e5760018086815481101515610b9957fe5b90600052602060002090600b020160080160006101000a81548160ff021916908315150217905550600091505b83839050821015610c4d57610c05858585858181101515610be357fe5b9050602002013573ffffffffffffffffffffffffffffffffffffffff166106f9565b1515610c4057610c3f858585858181101515610c1d57fe5b9050602002013573ffffffffffffffffffffffffffffffffffffffff16611934565b5b8180600101925050610bc6565b5b5050505050565b600181815481101515610c6457fe5b90600052602060002090600b0201600091509050806000018054600181600116156101000203166002900480601f016020809104026020016040519081016040528092919081815260200182805460018160011615610100020316600290048015610d105780601f10610ce557610100808354040283529160200191610d10565b820191906000526020600020905b815481529060010190602001808311610cf357829003601f168201915b505050505090806001018054600181600116156101000203166002900480601f016020809104026020016040519081016040528092919081815260200182805460018160011615610100020316600290048015610dae5780601f10610d8357610100808354040283529160200191610dae565b820191906000526020600020905b815481529060010190602001808311610d9157829003601f168201915b5050505050908060020160009054906101000a900460ff16908060030154908060040154908060050154908060060154908060070154908060080160009054906101000a900460ff16905089565b6000809054906101000a900473ffffffffffffffffffffffffffffffffffffffff1681565b816002600082815260200190815260200160002060009054906101000a900473ffffffffffffffffffffffffffffffffffffffff1673ffffffffffffffffffffffffffffffffffffffff163373ffffffffffffffffffffffffffffffffffffffff161415610f0057826000806004811115610e9857fe5b600183815481101515610ea757fe5b90600052602060002090600b020160020160009054906101000a900460ff166004811115610ed157fe5b1415610efd5783600186815481101515610ee757fe5b90600052602060002090600b0201600401819055505b50505b505050565b816002600082815260200190815260200160002060009054906101000a900473ffffffffffffffffffffffffffffffffffffffff1673ffffffffffffffffffffffffffffffffffffffff163373ffffffffffffffffffffffffffffffffffffffff161415610fe457826000806004811115610f7c57fe5b600183815481101515610f8b57fe5b90600052602060002090600b020160020160009054906101000a900460ff166004811115610fb557fe5b1415610fe15783600186815481101515610fcb57fe5b90600052602060002090600b0201600501819055505b50505b505050565b816002600082815260200190815260200160002060009054906101000a900473ffffffffffffffffffffffffffffffffffffffff1673ffffffffffffffffffffffffffffffffffffffff163373ffffffffffffffffffffffffffffffffffffffff1614156110c85782600080600481111561106057fe5b60018381548110151561106f57fe5b90600052602060002090600b020160020160009054906101000a900460ff16600481111561109957fe5b14156110c557836001868154811015156110af57fe5b90600052602060002090600b0201600601819055505b50505b505050565b816002600082815260200190815260200160002060009054906101000a900473ffffffffffffffffffffffffffffffffffffffff1673ffffffffffffffffffffffffffffffffffffffff163373ffffffffffffffffffffffffffffffffffffffff161415611189576001808481548110151561114557fe5b90600052602060002090600b020160080160006101000a81548160ff02191690831515021790555061117783836106f9565b1515611188576111878383611934565b5b5b505050565b826002600082815260200190815260200160002060009054906101000a900473ffffffffffffffffffffffffffffffffffffffff1673ffffffffffffffffffffffffffffffffffffffff163373ffffffffffffffffffffffffffffffffffffffff1614156112785783600080600481111561120557fe5b60018381548110151561121457fe5b90600052602060002090600b020160020160009054906101000a900460ff16600481111561123e57fe5b141561127557848460018881548110151561125557fe5b90600052602060002090600b02016000019190611273929190611a5f565b505b50505b50505050565b600082841115151561128f57600080fd5b84831115151561129e57600080fd5b600180610140604051908101604052808c8c8080601f01602080910402602001604051908101604052809392919081815260200183838082843782019150505050505081526020018a8a8080601f01602080910402602001604051908101604052809392919081815260200183838082843782019150505050505081526020016000600481111561132b57fe5b81526020018881526020018781526020018681526020018581526020016000815260200160001515815260200160006040519080825280602002602001820160405280156113885781602001602082028038833980820191505090505b508152509080600181540180825580915050906001820390600052602060002090600b02016000909192909190915060008201518160000190805190602001906113d3929190611adf565b5060208201518160010190805190602001906113f0929190611adf565b5060408201518160020160006101000a81548160ff0219169083600481111561141557fe5b0217905550606082015181600301556080820151816004015560a0820151816005015560c0820151816006015560e082015181600701556101008201518160080160006101000a81548160ff02191690831515021790555061012082015181600901908051906020019061148a929190611b5f565b505050039050336002600083815260200190815260200160002060006101000a81548173ffffffffffffffffffffffffffffffffffffffff021916908373ffffffffffffffffffffffffffffffffffffffff160217905550600360003373ffffffffffffffffffffffffffffffffffffffff1673ffffffffffffffffffffffffffffffffffffffff168152602001908152602001600020600081548092919060010191905055507f1d32e1f46a0b5fa1e444f020398233bbc9b4fdc25f06890c464acf8e357b5c9f818a8a8a8a8a60405180878152602001806020018060200184815260200183810383528888828181526020019250808284378201915050838103825286868281815260200192508082843782019150509850505050505050505060405180910390a1505050505050505050565b60026020528060005260406000206000915054906101000a900473ffffffffffffffffffffffffffffffffffffffff1681565b826002600082815260200190815260200160002060009054906101000a900473ffffffffffffffffffffffffffffffffffffffff1673ffffffffffffffffffffffffffffffffffffffff163373ffffffffffffffffffffffffffffffffffffffff1614156116dc5783600080600481111561166957fe5b60018381548110151561167857fe5b90600052602060002090600b020160020160009054906101000a900460ff1660048111156116a257fe5b14156116d95784846001888154811015156116b957fe5b90600052602060002090600b020160010191906116d7929190611a5f565b505b50505b50505050565b6000809054906101000a900473ffffffffffffffffffffffffffffffffffffffff1673ffffffffffffffffffffffffffffffffffffffff163373ffffffffffffffffffffffffffffffffffffffff1614151561173d57600080fd5b600073ffffffffffffffffffffffffffffffffffffffff168173ffffffffffffffffffffffffffffffffffffffff161415151561177957600080fd5b8073ffffffffffffffffffffffffffffffffffffffff166000809054906101000a900473ffffffffffffffffffffffffffffffffffffffff1673ffffffffffffffffffffffffffffffffffffffff167f8be0079c531659141344cd1fd0a4f28419497f9722a3daafe3b4186f6b6457e060405160405180910390a3806000806101000a81548173ffffffffffffffffffffffffffffffffffffffff021916908373ffffffffffffffffffffffffffffffffffffffff16021790555050565b816002600082815260200190815260200160002060009054906101000a900473ffffffffffffffffffffffffffffffffffffffff1673ffffffffffffffffffffffffffffffffffffffff163373ffffffffffffffffffffffffffffffffffffffff161415611916578260008060048111156118ae57fe5b6001838154811015156118bd57fe5b90600052602060002090600b020160020160009054906101000a900460ff1660048111156118e757fe5b141561191357836001868154811015156118fd57fe5b90600052602060002090600b0201600301819055505b50505b505050565b600081831061192a578161192c565b825b905092915050565b60018281548110151561194357fe5b90600052602060002090600b02016009018190806001815401808255809150509060018203906000526020600020016000909192909190916101000a81548173ffffffffffffffffffffffffffffffffffffffff021916908373ffffffffffffffffffffffffffffffffffffffff16021790555050604080519081016040528060008152602001600115158152506001838154811015156119e057fe5b90600052602060002090600b0201600a0160008373ffffffffffffffffffffffffffffffffffffffff1673ffffffffffffffffffffffffffffffffffffffff1681526020019081526020016000206000820151816000015560208201518160010160006101000a81548160ff0219169083151502179055509050505050565b828054600181600116156101000203166002900490600052602060002090601f016020900481019282601f10611aa057803560ff1916838001178555611ace565b82800160010185558215611ace579182015b82811115611acd578235825591602001919060010190611ab2565b5b509050611adb9190611be9565b5090565b828054600181600116156101000203166002900490600052602060002090601f016020900481019282601f10611b2057805160ff1916838001178555611b4e565b82800160010185558215611b4e579182015b82811115611b4d578251825591602001919060010190611b32565b5b509050611b5b9190611be9565b5090565b828054828255906000526020600020908101928215611bd8579160200282015b82811115611bd75782518260006101000a81548173ffffffffffffffffffffffffffffffffffffffff021916908373ffffffffffffffffffffffffffffffffffffffff16021790555091602001919060010190611b7f565b5b509050611be59190611c0e565b5090565b611c0b91905b80821115611c07576000816000905550600101611bef565b5090565b90565b611c4e91905b80821115611c4a57600081816101000a81549073ffffffffffffffffffffffffffffffffffffffff021916905550600101611c14565b5090565b905600a165627a7a72305820f0698e83e059f561f3777db8ae75de3aa7ef96349e9343021c6d97a20592af0b0029",
  "source": "/// @title OfferFabric: Service for Ethereum pooling.\n/// @author Shagaleev Alexey\n/// @dev Contract for create and manage offers, also investing.\n\npragma solidity ^0.4.20;\n\nimport \"./Ownable.sol\";\nimport \"./Utils.sol\";\n\ncontract OfferFabric is Ownable {\n\n    event NewOffer(uint offerId, string name, string desc, uint maxTotalSum);\n    event AddInvestors(uint offerId, string name, string desc, uint maxTotalSum);\n\n    enum State { Initial, Open, Failed, Paid, Refund }\n\n    struct ParticipantData {\n        uint deposit;\n        bool existing;\n    }\n\n    struct Offer {\n        string name;\n        string desc;\n\n        State state;\n\n        uint maxTotalSum;   //wei\n        uint minSumPer;     //wei\n        uint maxSumPer;     //wei\n        uint rate;          //wei\n        uint currentTotalSum;    //wei\n\n        bool restricted;\n\n        address[] participants;\n        \n        mapping (address => ParticipantData) participantToData;\n    }\n\n    modifier ownerOfOffer(uint _offerId) {\n        if (msg.sender == offerToOwner[_offerId]) _;\n    }\n    modifier stateOf(uint _offerId, State needState) {\n        if (offers[_offerId].state == needState) _;\n    }\n    \n    Offer[] public offers;\n\n    mapping (uint => address) public offerToOwner;\n    mapping (address => uint) ownerOfferCount;\n    \n    function kill() public onlyOwner {\n        selfdestruct(owner);\n    }\n\n    function createOffer(string _name, string _desc, uint _maxTotalSum, uint _minSumPer, uint _maxSumPer, uint _rate) external {\n        require(_minSumPer <= _maxSumPer);\n        require(_maxSumPer <= _maxTotalSum);\n\n        uint offerId = offers.push(Offer({\n            name: _name,\n            desc: _desc,\n            state: State.Initial,\n            maxTotalSum: _maxTotalSum,\n            minSumPer: _minSumPer,\n            maxSumPer: _maxSumPer,\n            rate: _rate,\n            currentTotalSum: 0,\n            restricted: false,\n            participants: new address[](0)\n            })) - 1;\n        offerToOwner[offerId] = msg.sender;\n        ownerOfferCount[msg.sender]++;\n        NewOffer(offerId, _name, _desc, _maxTotalSum);\n    }\n\n    function changeName(uint _offerId, string _newName) external ownerOfOffer(_offerId) stateOf(_offerId, State.Initial) {\n        offers[_offerId].name = _newName;\n    }\n\n    function changeDesc(uint _offerId, string _newDesc) external ownerOfOffer(_offerId) stateOf(_offerId, State.Initial) {\n        offers[_offerId].desc = _newDesc;\n    }\n\n    // function changeState(uint _offerId, State _newState) internal ownerOfOffer(_offerId) {\n    //     offers[_offerId].state = _newState;\n    // }\n\n    function changemaxTotalSum(uint _offerId, uint _newmaxTotalSum) external ownerOfOffer(_offerId) stateOf(_offerId, State.Initial) {\n        offers[_offerId].maxTotalSum = _newmaxTotalSum;\n    }\n\n    function changeMaxSumPer(uint _offerId, uint _newMaxSumPer) external ownerOfOffer(_offerId) stateOf(_offerId, State.Initial) {\n        offers[_offerId].maxSumPer = _newMaxSumPer;\n    }\n\n    function changeMinSumPer(uint _offerId, uint _newMinSumPer) external ownerOfOffer(_offerId) stateOf(_offerId, State.Initial) {\n        offers[_offerId].minSumPer = _newMinSumPer;\n    }\n\n    function changeRate(uint _offerId, uint _newRate) external ownerOfOffer(_offerId) stateOf(_offerId, State.Initial) {\n        offers[_offerId].rate = _newRate;\n    }\n\n    function _addParticipant(uint _offerId, address _address) internal {\n        offers[_offerId].participants.push(_address);\n        offers[_offerId].participantToData[_address] = ParticipantData(0, true);\n    }\n\n    function addInvestor(uint _offerId, address _investor) external ownerOfOffer(_offerId) {\n        offers[_offerId].restricted = true;\n\n        if (!inInvestors(_offerId, _investor)) _addParticipant(_offerId, _investor);\n    }\n\n    function addInvestors(uint _offerId, address[] _investors) external ownerOfOffer(_offerId) {\n        offers[_offerId].restricted = true;\n\n        for(uint i = 0; i < _investors.length; i++) {\n            if (!inInvestors(_offerId, _investors[i])) _addParticipant(_offerId, _investors[i]);\n        }\n    }\n\n    function getOffersByOwner(address _owner) external view returns(uint[]) {\n        uint[] memory result = new uint[](ownerOfferCount[_owner]);\n        uint counter = 0;\n        for (uint i = 0; i < offers.length; i++) {\n            if (offerToOwner[i] == _owner) {\n                result[counter] = i;\n                counter++;\n            }\n        }\n\n        return result;\n    }\n\n    function inInvestors(uint _offerId, address _address) public view returns(bool) {\n        return (offers[_offerId].participantToData[_address].existing);\n    }\n    \n    function invest(uint _offerId) external payable {\n        Offer storage offer = offers[_offerId];\n\n        if (offer.currentTotalSum >= offer.maxTotalSum || offer.participantToData[msg.sender].deposit >= offer.maxSumPer || msg.value < offer.minSumPer) {\n            msg.sender.transfer(msg.value);\n            return;\n        }\n\n        ParticipantData storage participantData = offers[_offerId].participantToData[msg.sender];\n        uint needSum = Utils.min(Utils.min(msg.value, offer.maxSumPer - participantData.deposit), offer.maxTotalSum - offer.currentTotalSum);\n\n        participantData.deposit += needSum;\n        offer.currentTotalSum += needSum;\n\n        if (msg.value > needSum) msg.sender.transfer(msg.value - needSum);\n    }\n\n}",
  "sourcePath": "/Users/alexey/Projects/SmartFund/contracts/OfferFabric.sol",
  "compiler": {
    "name": "solc",
    "version": "0.4.23+commit.124ca40d.Emscripten.clang"
  },
  "schemaVersion": "2.0.0",
  "updatedAt": "2018-04-27T15:35:36.595Z"
}